:02000004080AE8
:1000000000000A08F8120A080000050006000501B1
:080010000402E80300000000F7
:10001800D80F0A0809480A4908B5884205D0094A8C
:10002800824202D0121A00F085FF0748074A0021D1
:10003800121A00F08AFF064808BD00BF000300201E
:1000480064120A086C0300206C030020EC080020EE
:10005800EC08002070B500F03DFD074B074C1E462C
:10006800E41AA4080025A54204D056F8253098477C
:100078000135F8E770BD00BF28120A0858120A08AF
:1000880000F02EB808B500F041F8BDE8084000F0CF
:10009800E3BC00F075B90078B0FA80F04009704709
:1000A800012303707047000038B50A49054600F07F
:1000B8002EFB044608B1012105E00749284600F057
:1000C80026FB30B12146054B188800F064FD01205D
:1000D80038BD38BDEC0F0A08EF0F0A0800030020EE
:1000E80008B5064B0121188800F044FDBDE808401A
:1000F800034A0449044800F072B900BF0003002015
:10010800F30F0A08B1000A08BB030A08704700F099
:1001180021B8000008B5024B1B681B6B019308BD92
:10012800D001060808B5024B1B68DB6E019308BDB9
:10013800B801060808B5024B1B685B68019308BD47
:100148009C01060808B5024B1B685B69019308BD52
:100158009C01060808B5024B1B681B68019308BD83
:10016800B001060808B5024B1B689B68019308BDDF
:10017800B001060808B5024B1B68DB68019308BD8F
:10018800B001060808B5024B1B681B69019308BD3E
:10019800B001060808B5024B1B681B6E019308BD29
:1001A800AC01060808B5024B1B685B6E019308BDDD
:1001B800AC01060808B5024B1B689B6E019308BD8D
:1001C800AC01060808B5024B1B68DB6E019308BD3D
:1001D800AC01060808B5024B1B681B6F019308BDEC
:1001E800AC01060808B5024B1B685B6F019308BD9C
:1001F800AC01060808B5034B1B68D3F8803001939F
:1002080008BD0000AC01060808B5024B1B68DB6995
:10021800019308BDB401060808B5024B1B681B6AA8
:10022800019308BDB401060808B5024B1B689B6919
:10023800019308BDC401060808B5024B1B685B6A38
:10024800019308BDC401060808B5024B1B689B6AE8
:10025800019308BDC401060808B5024B1B68DB6A98
:10026800019308BDC401060808B5024B1B681B6B47
:10027800019308BDC401060808B5024B1B685B6BF7
:10028800019308BDC401060808B5024B1B689B6BA7
:10029800019308BDC401060808B5024B1B681B6C16
:1002A800019308BDC401060808B5024B1B681B680A
:1002B800019308BDD801060808B5024B1B681B69E5
:1002C800019308BDD801060808B5024B1B685B6995
:1002D800019308BDD801060808B5024B1B689B6945
:1002E800019308BDD801060808B5024B1B68DB69F5
:1002F800019308BDD801060808B5024B1B681B6AA4
:10030800019308BDD801060808B5024B1B685B6855
:10031800019308BDA401060808B5034B1B68D3F870
:100328009030019308BD0000A401060808B5034BEE
:100338001B68D3F89C30019308BD0000A40106088F
:1003480008B5024B1B685B68019308BDCC01060821
:1003580008B5024B1B68DB6B019308BDCC0106088E
:1003680008B5024B1B681B69019308BDC801060844
:1003780008B5024B1B681B68019308BDA00106085D
:1003880008B5024B1B685B68019308BDA00106080D
:1003980008B5024B1B689B68019308BDA0010608BD
:1003A80010B58368044613B10322014698472046D6
:1003B80010BD10B588B00446684600F07BF9694660
:1003C80004A800F099F904A8A047044604A800F07E
:1003D8002AF9684600F027F9204608B010BDF0B5A4
:1003E80007460E46154685B0102422460021684669
:1003F80000F0ABFD002269461046ADF800400297B8
:1004080003960195FFF79CFF05B0F0BD7047F8B55E
:10041800064615460C468F18BC4206D0336814F8B9
:10042800011B9B6830469847F6E72846F8BD00222E
:10043800007CFFF7AFBE0021007CFFF7B3BE0021B0
:10044800007CFFF7B7BE0021007CFFF7BBBE002190
:10045800007CFFF7BFBE10B50446FFF71AFE204622
:1004680010BD000010B5044608464FF47A73A36027
:10047800044B0021207461602360FFF7BBFE204617
:1004880010BD00BF04100A080021007CFFF7AABEB7
:10049800704710B50446FFF7FCFD204610BDF8B5BF
:1004A8000F4600F10806051D002416F8011D0A2252
:1004B800384600F082F8AE42044407D0002CF4D04D
:1004C8002E21384600F04CF80444EEE72046F8BDEB
:1004D80010B59DF8084044EA032343EA024242EA81
:1004E800016104234160037510BD000037B5044D58
:1004F80005609DF818500095FFF7EAFF03B030BD7E
:100508002C100A08014A024B1A607047F1100A08B9
:1005180070030020F8B506460D468F180024BD422A
:100528000CD0336815F8011B9B68304698470028A3
:1005380001DB0444F3E7002C08BF04462046F8BD5D
:1005480070B505460C46084649B100F039FD2B68E0
:10055800024621462846BDE87040DB68184770BD52
:1005680003689B681847012A98BF0A2230B50B46D2
:100578008BB000218DF824100DF12304B3FBF2F5A4
:1005880005FB1233DBB2092B94BF30333733DBB2B0
:10059800214604F801392B46002DEFD1FFF7D0FF93
:1005A8000BB030BD10B422B90368C9B29B6810BC47
:1005B8001847D2B210BCFFF7D6BFFFF7F3BF10B58C
:1005C8000446FFF7EDFE204610BD00000348002357
:1005D8008360034A034900F051BB00BF7403002045
:1005E8006C030020C7050A08704710B50446FFF7DA
:1005F80050FD204610BD000070B504460E46074B5E
:100608000025036040F80C5FFFF784FD3046267133
:10061800FFF7FAFDA560204670BD00BF24110A0847
:100628000079FFF7F9BD10B504460068FFF7A8FE8A
:10063800204610BD10B50446006808B1FFF7A0FEBB
:1006480000232360A360636010BD38B504460D46DF
:1006580000680131FFF79CFE10B184E821000120F9
:1006680038BD10B50368044613B143688B4207D2FE
:100678002046FFF7EAFF20B1A3680BB92268137080
:10068800012010BD70B50E46114604461546FFF709
:10069800E8FF18B92046FFF7CDFF09E02A463146A2
:1006A800A560206800F046FC2268A3680021D154A8
:1006B800204670BD38B5002304460360436083605C
:1006C80003730D4639B1084600F07AFC2946024604
:1006D8002046FFF7D7FF204638BD884210B50B46A5
:1006E800044607D0096819B19A68FFF7CBFF01E003
:1006F800FFF7A0FF204610BD10B504460023036095
:10070800436083600373FFF7E8FF204610BD08B518
:1007180082680B4612B919B9012008BD11B90368DE
:10072800187802E0006800F041FCB0FA80F0400957
:1007380008BD00004FF69C7337B50D4C002563804B
:100748004FF6FF732846A3802570FFF7DDFD02A84A
:1007580040F8045D2A462946FFF7E4FC019B1E2B5E
:1007680004D10323237011236580A38003B030BD17
:1007780084030020024B1A68024B1A60704700BFBE
:10078800040300208C030020704741747047007CEC
:10079800FFF782BD007CFFF757BD007CFFF764BD03
:1007A800007CFFF759BD007CFFF766BD10B5044615
:1007B800FFF76FFC204610BD70B5457C04460E4619
:1007C80025B9007CFFF768FD002805DD3146207C4F
:1007D800BDE87040FFF730BD284670BD10B504462F
:1007E80008461146002262604FF47A72A260054AF8
:1007F80020742260012262741A46FFF715FD204614
:1008080010BD00BF60110A08007CFFF73DBD000065
:1008180038B50C4D296811F0010411D12846FFF7AD
:100828003AFC68B1084A2146084B0948FFF7D6FF49
:100838002846FFF735FC074A0749054800F01EFA25
:10084800034838BD280400202C040020A4030020FD
:10085800900300206C03002091070A084174704738
:1008680070470021007CFFF737BD0121007CFFF7AE
:1008780033BD007CFFF728BD007CFFF71DBD38B5F0
:100888000446007C0D46FFF71FFD002801DC607C54
:1008980020B12946207CFFF727FD012038BD007CC8
:1008A800FFF72ABD10B50446FFF7F3FB204610BD3D
:1008B80010B50446002363604FF47A73A360054BB8
:1008C800084623600123217463741146FFF7ECFC8A
:1008D800204610BD90110A0810B5044614220021C4
:1008E80000F033FB054B20466360054BE36040F2A4
:1008F800011323818123238210BD00BF3505002009
:10090800B404002030B50E4D87B001A8FFF7E4FF0E
:10091800296811F0010410D12846FFF7BCFB60B12B
:1009280001AA21460748FFF7C3FF2846FFF7B8FB8F
:10093800054A0649034800F0A1F9024807B030BD4E
:10094800B0040020380600206C03002069080A085B
:1009580010B504461422002100F0F7FA054B204692
:100968006360054BE36040F20113238181232382F6
:1009780010BD00BFE80600205006002010B50E4C40
:1009880086B001A8FFF7E4FF2368DB0710D42046F0
:10099800FFF781FB60B101AA01210848FFF788FF32
:1009A8002046FFF77DFB064A0649044800F066F931
:1009B800024806B010BD00BF4C060020D406002037
:1009C8006C03002069080A08704700221146104687
:1009D800FFF7C6BC0348044B044A0549036000F00E
:1009E8004DB900BFEC070020C0110A086C030020B5
:1009F800D1090A0808B5144B33B1FFF783FF036820
:100A08001B699847002816DC104B33B1FFF700FF2D
:100A180003681B699847002810DC0D4B0BB1AFF336
:100A280000800C4B7BB1FFF7A9FF03681B6998474F
:100A3800002806DC08BDAFF30080E5E7AFF30080CF
:100A4800EBE7AFF3008008BD0000000000000000E5
:100A5800000000000000000008B5FFF7CBFFFFF71B
:100A680071FB014B186008BDF80700200248034AD3
:100A78000349121A00F05EBA0040024004400240E6
:100A880060120A0807B5002300931A466FF0770131
:100A9800FFF74CFC03B05DF804FB000007B5438882
:100AA8000A2B08D0502B09D1094B1B683BB103B066
:100AB8005DF804EB1847FFF7E5FF06E00023009315
:100AC8001A466FF07701FFF731FC03B05DF804FBBD
:100AD800F007002038B5104C104D2368AB42104B7E
:100AE8000CBF012200221A7002D0FFF7BFFF256059
:100AF800FFF720FB00F032FA0A4B1BB1FFF71AFB95
:100B0800AFF3008000210748FFF722FCBDE838401A
:100B180000210548FFF700BC004002401E1C279A30
:100B2800F407002000000000A50A0A0810B50446D2
:100B38000F48FFF775FD28B1A4F10D03022B01D86A
:100B4800002010BD00F040F8FFF79EFC08B1012C12
:100B5800F6D9FFF75DFEFFF757FE18B1A4F11203AF
:100B6800012BEDD9172C8CBF0020012010BD00BF30
:100B78002C080020172838B504460D460AD8FF2946
:100B880008D0FFF7D3FF28B129462046BDE83840F2
:100B9800FFF7E8BA38BD38B504460D46FFF7EAFA5C
:100BA800FF2810D0062804D84D2323FA00F0C307E5
:100BB80009D42046FFF7BAFF28B129462046BDE8E8
:100BC8003840FFF7DFBA38BD38B50B4D296811F04A
:100BD80001040FD12846FFF75EFA58B121460748AD
:100BE800FFF740FC2846FFF75BFA054A054903482A
:100BF80000F044F8014838BDFC0700200008002038
:100C08006C03002015040A0813B5084C00231A4683
:100C1800194600932046FFF769FC2046044A054917
:100C280002B0BDE8104000F029B800BF1408002049
:100C38006C03002099040A0870B50C4C0C4E0D4D3D
:100C480000212046FFF7D8FC20460B4C32462946A7
:100C580000F014F801212046FFF7CEFC3246294661
:100C68002046BDE8704000F009B800BF2C080020FD
:100C78006C030020F1050A083C0800200B460146D9
:100C8800184600F049B90000244B1A68D0075CBF29
:100C980001221A60224B1A68D1075CBF01221A6030
:100CA800204B1A68D2075CBF01221A601E4B1A68D3
:100CB800D0075CBF01221A601C4B1A68D1075CBFC1
:100CC80001221A601A4B1A68D2075CBF01221A6007
:100CD800184B1A68D0075CBF01221A60164B1A68B5
:100CE800D1075CBF01221A60144B1A68D2075CBF97
:100CF80001221A60124B1A68D0075CBF01221A60E1
:100D0800104B1A68D1075CBF01221A600E4B1A6893
:100D1800D2075CBF01221A60704700BF7808002024
:100D280074080020700800206C0800206808002063
:100D380064080020600800205C0800205808002093
:100D480054080020500800204C080020184B1A684E
:100D5800D1075CBF01221A60164B1A68D2075CBF24
:100D680001221A60144B1A68D0075CBF01221A606E
:100D7800124B1A68D1075CBF01221A60104B1A681F
:100D8800D2075CBF01221A600E4B1A68D0075CBFFD
:100D980001221A600C4B1A68D1075CBF01221A6045
:100DA8000A4B1A68D2075CBF01221A60704700BF5D
:100DB8009808002094080020900800208C08002043
:100DC8008808002084080020800800207C08002073
:100DD800184B1A68D1075CBF01221A60164B1A68B3
:100DE800D2075CBF01221A60144B1A68D0075CBF97
:100DF80001221A60124B1A68D1075CBF01221A60DF
:100E0800104B1A68D2075CBF01221A600E4B1A6891
:100E1800D0075CBF01221A600C4B1A68D1075CBF6F
:100E280001221A600A4B1A68D2075CBF01221A60B5
:100E3800704700BFB8080020B4080020B0080020A0
:100E4800AC080020A8080020A4080020A008002062
:100E58009C080020244B1A68D0075CBF01221A6046
:100E6800224B1A68D1075CBF01221A60204B1A680E
:100E7800D2075CBF01221A601E4B1A68D0075CBFFC
:100E880001221A601C4B1A68D1075CBF01221A6044
:100E98001A4B1A68D2075CBF01221A60184B1A68ED
:100EA800D0075CBF01221A60164B1A68D1075CBFD5
:100EB80001221A60144B1A68D2075CBF01221A601B
:100EC800124B1A68D0075CBF01221A60104B1A68CF
:100ED800D1075CBF01221A600E4B1A68D2075CBFAB
:100EE80001221A60704700BFE8080020E4080020CB
:100EF800E0080020DC080020D8080020D4080020E2
:100F0800D0080020CC080020C8080020C408002011
:100F1800C0080020BC08002010B5054C13462CB1B1
:100F28000A4601460220AFF3008010BD204610BDDE
:100F38000000000010B5431E0A44914204D011F885
:100F4800014B03F8014FF8E710BD034602449342F2
:100F580002D003F8011BFAE77047000038B5124BBE
:100F680005461C68A36BD3B91820FFF701FA43F2B2
:100F78000E33A06303804AF6CD33438041F2342315
:100F880083804EF26D63C3804DF6EC6303810523C5
:100F980043810B23838101220023C0E90423A36B2F
:100FA80000221D615A6138BD6803002010F8012B2A
:100FB80011F8013B012A28BF9A42F7D0D01A70478E
:100FC800034613F8012B002AFBD1181A0138704781
:100FD8001D000A085D000A0889000A088D000A0831
:100FE800000000006F6E006F666600746F67676CC4
:100FF80065000000000000000000000015040A0859
:101008005F040A0837040A0817040A083F040A0894
:1010180047040A084F040A0857040A080000000099
:1010280000000000A7040A0899040A089B040A089B
:101038006C6E00666E00636F646500646574616958
:101048006C000D0A00253031307520005D20002528
:1010580064002C200028293A2000205B00636F647C
:1010680065203D200025690064657461696C732002
:101078003D2000626175640053657269616C0055BA
:10108800534253657269616C310074797065007000
:101098006172616D00636D6400696400686E64006C
:1010A8007374726D0066696C74006C766C006164B0
:1010B8006448616E646C65720072656D6F76654830
:1010C800616E646C657200656E756D48616E646C06
:1010D800657273004A534F4E53747265616D4C6F5D
:1010E8006748616E646C657200617070006E6F6E47
:1010F8006500747261636500696E666F007761727E
:101108006E006572726F720070616E696300616C67
:101118006C0000000000000000000000F1050A0853
:10112800F3050A085A00252B3033643A2530327506
:101138000025592D256D2D25645425483A254D3A0D
:101148002553257A0061736374696D65000000009A
:10115800000000000000000091070A08B5070A080F
:10116800C1070A081D050A089D070A08A9070A08F1
:10117800A3070A08AF070A0893070A0897070A0887
:10118800000000000000000069080A08AD080A080D
:1011980087080A081D050A0881080A086B080A0852
:1011A80073080A08A7080A087B080A0865080A08D5
:1011B8000000000000000000D3090A080000000039
:1011C8000000000000000000000000000000000017
:1011D8000000000000000000000000000000000007
:1011E80000000000000000000000000000000000F7
:1011F80000000000000000000000000000000000E7
:1012080000000000000000000000000000000000D6
:101218000000000000000000000000004300000083
:1012280017010A080D050A08D5050A083D070A0826
:101238007D070A08DD090A08110C0A08410C0A088A
:10124800910C0A08550D0A08D90D0A085D0E0A08FE
:0812580000000000000000008E
:04126000000000008A
:10126400070000004D110A0800000000C4110A081C
:10127400E4110A0804120A0800000000000000003B
:10128400000000000000000024120A080000000012
:10129400000000000000000000000000000000004A
:1012A400000000000000000000000000000000003A
:1012B400000000000000000000000000000000002A
:0C12C400000000000000000008030020F3
:1012D000FFFFFFFF00000102030405060708090ADB
:1012E0000B0C0D0E0F101112131415161718191AD6
:0812F0001B1C1D1E1F2028001D
:0412F80078563412DE
:04000005080A0018CD
:00000001FF
